:100000000C944F010C9400000C9400000C94000020
:100010000C9400000C9400000C9400000C94000060
:100020000C9400000C9400000C943E020C94000010
:100030000C9400000C9400000C9400000C94000040
:100040000C9400000C9400000C9400000C94000030
:100050000C9400001027E80364000A00010000105F
:1000600000011000010031323334393939390300CD
:1000700004003738392F3435362A3132332D4330A6
:10008000232B202020202020202020202020202062
:100090002020004C656E204D757374204265200051
:1000A00053595354454D204C4F434B454421005721
:1000B000616974202532642073656320202000313B
:1000C0003A55737250737720323A41646D50730021
:1000D000333A54726965732020343A4C656E004E91
:1000E0006577205573657220506173733A005361D0
:1000F00076656421004E65772041646D696E2050FD
:100100006173733A00536574204D617820547269AD
:1001100065733A00536574204C656E6774682834C3
:100120002D38293A0053617665642120506C7A207D
:10013000526573657400496E76616C6964204C6524
:100140006E677468210020204469676974616C20BF
:100150004C6F636B202000205374617274696E676A
:100160002E2E2E20202020002F3A2055736572203D
:10017000202A3A41646D696E0053656C6563742092
:100180004D6F64652E2E2E0055736572205061737D
:1001900073776F72643A00416363657373204772CB
:1001A000616E74656400446F6F72204F70656E6598
:1001B000640057726F6E672050617373776F72645B
:1001C000210041646D696E2050617373776F7264B2
:1001D0003A0041646D696E205665726966696564AE
:1001E00021000400F00366000400FA036A00010025
:1001F00004046E000100050470001100600282001A
:100200000D007102930011007E02820011008F0226
:1002100082000F00A002A0001100AF02BF000F007B
:10022000C002D0000F00CF02DF000700DE02EE00A8
:100230001000E502F5000700F502EE000F00FC02D9
:10024000050107000B03EE00110012031401110059
:100250002303250110003403360111004403460135
:100260001100550357011100660368010F00770361
:1002700079010F00860388010F00950397010C0098
:10028000A403A6011000B003B2011000C003C20114
:100290001000D003D2011000E003B2010000F89476
:1002A000EE27ECBBF1E0FBBFEBBFE5BF8DE0A2E0CA
:1002B000BB27ED938A95E9F780E098E0A0E6ED93FF
:1002C0000197E9F7E2EEF1E085919591009761F0F1
:1002D000A591B59105901590BF01F00105900D9283
:1002E0000197E1F7FB01F0CFEFE5EDBFE8E0EEBFEE
:1002F000C0E6D2E00C94C703A0E0B899A1E0E1E029
:10030000EA2B11F4B89801C0B89AC0980895C09A21
:10031000E1E0E0930B040E946402E0930704F09391
:1003200008046093090470930A040895E0910B0493
:10033000E030D1F00E946402DF01CB01E0910704BC
:10034000F09108046091090470910A040E94570713
:10035000A93BEBE0BE07E0E08E07E0E09E0720F05F
:10036000C098E0E0E0930B040895AA93E881E030A0
:1003700051F4E981FA81FA93EA93A0EFB3E00E9485
:10038000BE060C94DA04E981FA81FA93EA93AAEFA3
:10039000B3E00E94BE060C94DA04AA93E881E03030
:1003A00019F4E0EFF3E002C0EAEFF3E0FA93EA9326
:1003B000AB81BC810E94F0040C94DA04E091040447
:1003C0000895AA93E881E09304040C94B604E091A4
:1003D00005040895AA93E881E09305040C94B604FB
:1003E000E09106040895E0910604EF5F01C0E0E0AB
:1003F000E09306040895EFE0EABBEFEFEBBB08954E
:10040000609780E1A0E0B0E0E2E7F0E00E94B90789
:100410001A930A9310E0143060F5E12FA1E00E94D6
:100420006007E095E06FEBBBA2E0B0E05ED000E0DB
:100430000430E8F419B2E02FF0E03496A1E0B0E027
:100440000E946807A12DB0E0EA23FB23309769F4EE
:10045000E12FF0E0DE0112960E947107AE0FBF1F80
:10046000EE27A00FBE1FEC9105C00F5FE1CF1F5F0D
:10047000D2CFE0E019810881629608956A937A9359
:10048000AA93BA93EA93FA93EFB7EA93ACE0B4E095
:100490000E948407EF5FFF4F6F4F7F4F0E948907D5
:1004A000E991EFBFF991E991B991A9917991699198
:1004B0001895E0E0E2BFECE7ECBFEBE0E3BFE9B7A3
:1004C000E260E9BF789408952497F894E0910C04D1
:1004D000F0910D0460910E0470910F040E949C072E
:1004E00078940E94920724960895BA93AA93249729
:1004F000EBDF0E949C07E8DF0E9497070E945207EB
:10050000DF01CB01EC81FD81662777270E94A607DA
:1005100090F3269608951A930E9496010E94000275
:100520001E2F103081F0A4E1B0E0DFDF0E94000256
:100530001E1749F40E940002E03019F00E94960153
:10054000F9CFE12F01C0E8CF19910895BA93AA938A
:100550000E94AD070E94C506A0E6B2E00E94CF0649
:10056000DADF3E2F3332B1F4EE81FF81E017F1077D
:1005700019F4E1E0F0E049C0E0E00E94D606A1E70E
:10058000B2E0F6D1AE81A05DECD10E94DA06E0E0E7
:10059000F0E03BC03A3239F40E94C506AEE7B2E063
:1005A0000E94CF0631C0333439F40E94C506AFE84B
:1005B000B2E00E94CF0628C03D3219F4E0E0F0E03E
:1005C00024C0303310F03A3308F01EC0EE81FF81B2
:1005D0000E171F07CCF4F801A885B985EA0FFB1F99
:1005E00030830F5F1F4FF801AE0FBF1FE0E0EC93A9
:1005F000E02FE1500E94D606EC81FD81309711F08A
:10060000AAE201C0A32FADD1ABCF0E94B4072A96B6
:10061000089564971A930A930FE010E00E94DE0693
:1006200098D1A0EAB2E0A4D10024001601067CF51E
:100630000E94960149DFDF01CB01EA89FB896C89C1
:100640007D890E945707A83EE3E0BE07E0E08E07E1
:10065000E0E09E07D8F00E94DE0601501040FE0147
:100660003296FA93EA93EFEAF0E0FA93EA93F8010C
:100670000E9476070E94A10784E00E948A062896BD
:10068000E0E00E94D606DE01129672D1CDCF0E9424
:10069000F70119810881669608952A971A9359D10E
:1006A000AFEAB2E00E94CF06A0ECB2E061D133DF46
:1006B0001E2F113389F44DD1AFECB2E00E94E50654
:1006C00051F00E94F606A0E00E94CD0142D1AEEDAD
:1006D000B2E00E94FB0657C0123389F43AD1A5EE6E
:1006E000B2E00E94E50651F00E94F606A1E00E94E9
:1006F000CD012FD1A5EFB2E00E94FB0644C0133319
:1007000099F427D1ACEFB2E033D10E94F6060E94F3
:10071000010749F0A981A0530E94E1011AD1ABE081
:10072000B3E00E94FB062FC0143341F512D1A2E1C1
:10073000B3E01ED10E94F6060E940107F1F0229755
:10074000EB81F0E0F097E883F983A881B9811497F1
:1007500024F0A881B98119970CF007C0A8810E94E4
:10076000EA01F7D0A3E2B3E003C0F3D0A4E3B3E01F
:10077000FFD0A8EEB3E0B9DE229605C01D3211F01D
:100780001B3209F401C08BCF18812B9608952A974C
:1007900090DEC8D00E94FB010E947C01DAD0A4E464
:1007A000B3E00E94CF06A5E5B3E00E940B070E94CC
:1007B0009601CFD0A6E6B3E00E94CF06A7E7B3E04C
:1007C000D7D0A9DE1E2F1F3279F5C3D0A6E8B3E03B
:1007D0000E940E0741F1FE01FA93EA93A0E00E9405
:1007E000B501309781F00E94F7010E948701B1D0D6
:1007F000A5E9B3E00E94CF06A4EAB3E0B9D0A0ED2A
:10080000B7E073DE10C00E94F301A3D0A0EBB3E009
:100810000E940B070E94F001EF930E94DE01AF914E
:10082000AE1708F0F6DE29C01A3239F592D0A0ECE6
:10083000B3E00E940E0709F1FE01FA93EA93A1E0EA
:100840000E94B501309749F00E94F70182D0A0EDD7
:10085000B3E00E94FB0621DF10C00E94F30179D0B3
:10086000A0EEB3E00E940B070E94F001EF930E94FC
:10087000DE01AF91AE1708F0CCDE99CFFFCFA99A79
:10088000A1E0B0E00E947502A998A1E066C0AA9319
:10089000E881E03011F4A89801C0A89AE981E295B6
:1008A000E17011F4AA9801C0AA9AE981E295EF706B
:1008B000E695E17011F4AB9801C0AB9AE981E2953D
:1008C000EF70E695E695E17011F4AC9801C0AC9A32
:1008D000E981EE1FE0E0EE1FE17011F4AD9801C078
:1008E000AD9ACDDFE981E17011F4AA9801C0AA9A0E
:1008F000E981E695E17011F4AB9801C0AB9AE9810A
:10090000E695E695E17011F4AC9801C0AC9AE981E6
:10091000E695E695E695E17011F4AD9801C0AD9AC3
:10092000AEDF33C0E4B3EF63E4BBA898A998A4E1B9
:10093000B0E00E947502E2E00E941E07E8E20E9419
:100940001E07ECE00E941E07E6E00E941E0701D091
:100950000895E1E00E941E07A2E0B0E00E94750247
:100960000895AA93E881EA93A1E091DF2196089582
:10097000BA93AA93A881B981EC91E03031F0ED915E
:10098000A883B983AE2FEDDFF5CF22960895AA9301
:100990001A93A981A03029F4EA81F0E0E058FF4FD2
:1009A00004C0EA81F0E0E054FF4F1E2F1A93A0E04C
:1009B0006EDF188123960895BA93AA93E991F9916D
:1009C000A991B9916D917191671721F46623D1F7BF
:1009D000EE270895671BE1F3E1E008F4E250089583
:1009E000BA93AA93E991F991A991B991CD01619135
:1009F0006D936623E1F7FC010895BA93AA93A99138
:100A0000B991EE27FF276D91662311F03196FBCF48
:100A10000895BA93AA93AA27BB27E991F991059063
:100A2000002011F01196FBCFFD010895BA93AA930F
:100A30001A930A93AA81BB8112960E94800730976D
:100A400059F1AA81BB8114960E9480078F013097CB
:100A500061F00230E0E01E0798F0F80131978F0155
:100A6000AA81BB811496ED93FC93AA81BB81129657
:100A7000ED91FD913196FE93EE933197AC81A08379
:100A8000AA81BB810E948007FF232AF0ED91FD918E
:100A90003196FE93EE9306C0AA81BB81EFEFFFEF84
:100AA000ED93FC931981088125960895BA93AA9332
:100AB00026970E94AB0710E0AC85BD85E0E0F0E032
:100AC000ED93FC93EA89FB893196EA8BFB8B319796
:100AD000E4912E2FE03009F415C1E12FE03039F414
:100AE000253211F411E002C00E9422070AC1E13050
:100AF000A9F4253219F40E94220702C112E040E055
:100B000000E02D3211F401E0FCC02B3211F44BE275
:100B1000F8C0203211F440E2F4C002C0E23039F4EF
:100B200050E013E0203311F40068EBC003C0E33061
:100B300009F0E7C0203310F02A3308F007C0AAE01C
:100B40005A9F502DE22FE0535E0FDBC0E22FE336B9
:100B500049F40E942907E889F989A481AA930E948F
:100B60002F07CEC0E33741F40E9429070E943507C2
:100B70000E94FD041E2F0AC0E03761F40E9429077D
:100B80000E9435070E9409051E2F086002600F773A
:100B900030E034C0E43611F0E93611F4046002C0EC
:100BA000E53731F4E4E5F0E0EE83FF8315E00CC0B7
:100BB000E83511F4086003C0E83709F0A1C0EEE59C
:100BC000F0E0EE83FF8314E002FF14C00E942907C7
:100BD0000E943F07AB85AA233AF4EA85FB850E9471
:100BE0005C07EA87FB874DE2403011F01F5F01C0D0
:100BF0000B7F04C00E9429070E943F0700FD11C01F
:100C0000151778F407FF08C002FF04C00B7F242FDC
:100C1000115001C020E301C020E20E942207515080
:100C2000EFCF312F01FF17C03030A1F003FF06C016
:100C3000EE81FF812591EE83FF8305C0AE81BF81E8
:100C40002D91AE83BF830E942207503009F051508E
:100C50003150EACF4BC020E3EE81FF810E948E0726
:100C6000E887F987EE81FF813296EE83FF83E8857E
:100C7000F985AA85BB85AE17BF0750F02F5FA88501
:100C8000B985EA85FB85EA1BFB0BEA87FB87EFCF7B
:100C90002A3328F003FF02C0295F01C0295D04FD4B
:100CA0001AC0213320F4A885B985119709F409C029
:100CB000531710F000FF01C013C020E207FF0BC064
:100CC00020E3006102FF07C00B7F4A930E942F07B9
:100CD000503009F051500E942207503009F0515015
:100CE0003150A885B985129708F0B5CF00FF08C02C
:100CF000503031F05150E0E2EA930E942F07F8CFD4
:100D000010E0E0CEAC85BD850E9480070E94B2074E
:100D100064960895FF92F82E26970E94AD070E94D0
:100D20004707309719F4EFEFFFEF23C0DE01169667
:100D30000E944E078D010E944707EE83FF83E0E08B
:100D4000E887E987DE011A960E944E070E94800715
:100D5000FA93EA931A930A93E6E1F5E0FA93EA9399
:100D6000DE011A96A3DE9F01AE81BF81E0E0EC9325
:100D7000F9010E94B4072A96FF9008950E94DC04AE
:100D8000A0E00E947B07F0E0089500E010E0A88555
:100D9000B985E0E0EC93EA93A1E00C94C7040E94CB
:100DA000B804E0E0EA93A1E00C94C704EA93A1E060
:100DB0000C94C704ACEDB5E00C9475020E9464027B
:100DC000EA8BFB8B6C8B7D8B08950E94B804FE012F
:100DD0003196FA93EA930E94E701F0E0FA93EA93DE
:100DE000A1E0B0E00E94A60230970895FE0131967E
:100DF000FA93EA9308950E94B804A8EEB3E00C9425
:100E00007502E1E0F0E0FA93EA93A0E0B0E00E941E
:100E1000A602309708950E94B804CCCF0E94B8046F
:100E2000FE01FA93EA930E94E701F0E0FA93EA9355
:100E3000A1E0B0E00E94A60230970895EA93A0E0F6
:100E40000C9447042A93AD85BE85EF85F8890995F2
:100E50000895E889F9893497E88BF98B0895AD8571
:100E6000BE85EF85F88909950895A889B9891496F2
:100E70000E948007EE83FF83AE81BF810895A88919
:100E8000B98914960E948007EA87FB870895DE01DE
:100E90001C960E944E070E94800708950024AF0D03
:100EA000B01D0895EA1BFB0B680B790B0895AE1B70
:100EB000BF0B860B970B0895F195E195F0400895CF
:100EC000EE230E2EEA2F19F0EE0F0A94E9F708959B
:100ED000EE230E2EFD0121F0EE0FFF1F0A94E1F725
:100EE0000895EE0FFF1FEE0FFF1F08956F2F660F7F
:100EF000660B762F0895EA17E1E009F0EE270895D2
:100F0000ED91FC9111970895ED91FD916D917D9179
:100F100008957E936E93FE93EE9308950590F49159
:100F2000E02D0895E881F9816A817B810895A88187
:100F3000B9818A819B810895E883F9836A837B83E1
:100F400008957A936A93FA93EA930895AE17BF07C8
:100F50008607970708955A934A933A932A931A93C8
:100F60000A9308955D814C813B812A811981088112
:100F70000895AC0FBD1F05900D928A95E1F7089575
:00000001FF
