:0A0000000C944F010C9400000C94C6
:10000A0000000C9400000C9400000C9400000C9466
:10001A0000000C9400000C9400000C9400000C9456
:10002A00D9020C9400000C9400000C9400000C946B
:10003A0000000C9400000C9400000C9400000C9436
:10004A0000000C9400000C9400001027E8036400E0
:10005A000A0001000010000110000100313233349F
:10006A0039393939030004003738392F3435362AFB
:10007A003132332D4330232B2020202020202020F2
:10008A002020202020202020004C656E204D7573F2
:10009A0074204265200053595354454D204C4F4318
:1000AA004B454421005761697420253264207365E9
:1000BA006320202000313A55737250737720323A08
:1000CA0041646D507300333A547269657320203469
:1000DA003A4C656E004E6577205573657220506103
:1000EA0073733A00536176656421004E6577204147
:1000FA00646D696E20506173733A00536574204DC4
:10010A0061782054726965733A00536574204C65AE
:10011A006E67746828342D38293A0053617665640D
:10012A002120506C7A20526573657400496E76619D
:10013A006C6964204C656E677468210020204469EC
:10014A00676974616C204C6F636B202000205374C4
:10015A00617274696E672E2E2E20202020002F3A9D
:10016A00205573657220202A3A41646D696E0053E6
:10017A00656C656374204D6F64652E2E2E00557371
:10018A0065722050617373776F72643A00416363DA
:10019A00657373204772616E74656400446F6F7291
:1001AA00204F70656E65640057726F6E67205061EC
:1001BA007373776F7264210041646D696E205061B8
:1001CA007373776F72643A0041646D696E20566585
:1001DA0072696669656421000400F0036600040020
:1001EA00FA036A00010004046E00010005047000AD
:1001FA001100600282000D007102930011007E025C
:10020A00820011008F0282000F00A002A0001100DC
:10021A00AF02BF000F00C002D0000F00CF02DF0004
:10022A000700DE02EE001000E502F5000700F50205
:10023A00EE000F00FC02050107000B03EE0011009F
:10024A00120314011100230325011000340336019F
:10025A0011004403460111005503570111006603BA
:10026A0068010F00770379010F00860388010F00E8
:10027A00950397010C00A403A6011000B003B20174
:10028A001000C003C2011000D003D2011000E00325
:10029A00B2010000F894EE27ECBBF1E0FBBFEBBF24
:1002AA00E5BF8DE0A2E0BB27ED938A95E9F780E0F0
:1002BA0098E0A0E6ED930197E9F7E2EEF1E0859187
:1002CA009591009761F0A591B59105901590BF01A0
:1002DA00F00105900D920197E1F7FB01F0CFEFE5F0
:1002EA00EDBFE8E0EEBFC0E6D2E00C947604A0E0F1
:1002FA00B899A1E0E1E0EA2B11F4B89801C0B89AE4
:10030A00C0980895C09AE1E0E0930B040E94FF02AE
:10031A00E0930704F09308046093090470930A04B5
:10032A000895E0910B04E030D1F00E94FF02DF0152
:10033A00CB01E0910704F0910804609109047091DF
:10034A000A040E947407A93BEBE0BE07E0E08E07AF
:10035A00E0E09E0720F0C098E0E0E0930B040895E7
:10036A00AA93E881E03051F4E981FA81FA93EA9399
:10037A00A0EFB3E00E94DB060C94D702E981FA8170
:10038A00FA93EA93AAEFB3E00E94DB060C94D70231
:10039A00AA93E881E03019F4E0EFF3E002C0EAEF53
:1003AA00F3E0FA93EA93AB81BC810E940D050C94A9
:1003BA00D702E09104040895AA93E881E093040423
:1003CA000C94B302E09105040895AA93E881E0939E
:1003DA0005040C94B302E09106040895E091060422
:1003EA00EF5F01C0E0E0E09306040895EFE0EABBA6
:1003FA00EFEFEBBB0895609780E1A0E0B0E0E2E7A1
:10040A00F0E00E94D6071A930A9310E0143068F5B8
:10041A00E12FA1E00E947D07E095E06FEBBBA2E02F
:10042A00B0E00E94100300E00430E8F419B2E02FB3
:10043A00F0E03496A1E0B0E00E948507A12DB0E07B
:10044A00EA23FB23309769F4E12FF0E0DE011296EC
:10045A000E948E07AE0FBF1FEE27A00FBE1FEC91A2
:10046A0005C00F5FE1CF1F5FD1CFE0E0198108819E
:10047A0062960895A99AA1E0B0E0CDD0A998A1E02A
:10048A0065C0AA93E881E03011F4A89801C0A89A3F
:10049A00E981E295E17011F4AA9801C0AA9AE9816A
:1004AA00E295EF70E695E17011F4AB9801C0AB9A52
:1004BA00E981E295EF70E695E695E17011F4AC9862
:1004CA0001C0AC9AE981EE1FE0E0EE1FE17011F481
:1004DA00AD9801C0AD9ACEDFE981E17011F4AA9816
:1004EA0001C0AA9AE981E695E17011F4AB9801C0BE
:1004FA00AB9AE981E695E695E17011F4AC9801C0F2
:10050A00AC9AE981E695E695E695E17011F4AD9825
:10051A0001C0AD9AAFDF31C0E4B3EF63E4BBA89882
:10052A00A998A4E1B0E077D0E2E00E94E206E8E20E
:10053A000E94E206ECE00E94E206E6E00E94E20681
:10054A0001D00895E1E00E94E206A2E0B0E063D0A3
:10055A000895AA93E881EA93A1E093DF219608958A
:10056A00BA93AA93A881B981EC91E03031F0ED9168
:10057A00A883B983AE2FEDDFF5CF22960895AA930B
:10058A001A93A981A03029F4EA81F0E0E058FF4FDC
:10059A0004C0EA81F0E0E054FF4F1E2F1A93A0E056
:1005AA0070DF1881239608956A937A93AA93BA936F
:1005BA00EA93FA93EFB7EA93ACE0B4E00E94A1079A
:1005CA00EF5FFF4F6F4F7F4F0E94A607E991EFBF82
:1005DA00F991E991B991A991799169911895E0E018
:1005EA00E2BFECE7ECBFEBE0E3BFE9B7E260E9BFEB
:1005FA00789408952497F894E0910C04F0910D04EE
:10060A0060910E0470910F040E94B90778940E94B9
:10061A00AF0724960895BA93AA932497EBDF0E9412
:10062A00B907E8DF0E94B4070E946F07DF01CB0118
:10063A00EC81FD81662777270E94C30790F32696EF
:10064A0008951A930E9496010E9400021E2F1030EC
:10065A0081F0A4E1B0E0DFDF0E9400021E1749F436
:10066A000E940002E03019F00E949601F9CFE12FB2
:10067A0001C0E8CF19910895BA93AA930E94CA07B4
:10068A000E94E606A0E6B2E00E94F006DADF3E2FFC
:10069A003332C1F4EE81FF81E017F10719F4E1E08A
:1006AA00F0E04CC0E0E00E94F706A1E7B2E00E9449
:1006BA00B502AE81A05D0E94AE020E94FB06E0E098
:1006CA00F0E03CC03A3239F40E94E606AEE7B2E006
:1006DA000E94F00632C0333439F40E94E606AFE8CD
:1006EA00B2E00E94F00629C03D3219F4E0E0F0E0E1
:1006FA0025C0303310F03A3308F01FC0EE81FF8175
:10070A000E171F07D4F4F801A885B985EA0FFB1F55
:10071A0030830F5F1F4FF801AE0FBF1FE0E0EC936D
:10072A00E02FE1500E94F706EC81FD81309711F02D
:10073A00AAE201C0A32F0E94AE02A8CF0E94D1074D
:10074A002A96089564971A930A930FE010E00E947C
:10075A00FF060E94A702A0EAB2E00E94B5020024A6
:10076A000016010684F50E94960144DFDF01CB01E1
:10077A00EA89FB896C897D890E947407A83EE3E0B7
:10078A00BE07E0E08E07E0E09E07E0F00E94FF0669
:10079A0001501040FE013296FA93EA93EFEAF0E034
:1007AA00FA93EA93F8010E9493070E94BE0784E035
:1007BA000E94A7062896E0E00E94F706DE0112963C
:1007CA000E94B502CCCF0E94F70119810881669672
:1007DA0008952A971A930E94A702AFEAB2E00E94EC
:1007EA00F006A0ECB2E00E94B5022BDF1E2F1133F7
:1007FA0099F40E94A702AFECB2E00E94060759F0F2
:10080A000E941707A0E00E94CD010E94A702AEED48
:10081A00B2E00E941C0761C0123399F40E94A70239
:10082A00A5EEB2E00E94060759F00E941707A1E060
:10083A000E94CD010E94A702A5EFB2E00E941C0708
:10084A004CC01333B1F40E94A702ACEFB2E00E948D
:10085A00B5020E9417070E94220751F0A981A053EE
:10086A000E94E1010E94A702ABE0B3E00E941C07CC
:10087A0034C0143369F50E94A702A2E1B3E00E94D2
:10088A00B5020E9417070E94220709F12297EB81FD
:10089A00F0E0F097E883F983A881B981149724F0EE
:1008AA00A881B98119970CF008C0A8810E94EA01B1
:1008BA000E94A702A3E2B3E004C00E94A702A4E335
:1008CA00B3E00E94B502A8EEB3E0A5DE229605C009
:1008DA001D3211F01B3209F401C07DCF18812B960D
:1008EA0008952A977CDE0E9491020E94FB010E94D1
:1008FA007C010E94A702A4E4B3E00E94F006A5E5E9
:10090A00B3E00E942C070E9496010E94A702A6E665
:10091A00B3E00E94F006A7E7B3E00E94B50291DEB9
:10092A001E2F1F3299F50E94A702A6E8B3E00E9483
:10093A002F0759F1FE01FA93EA93A0E00E94B5014C
:10094A00309791F00E94F7010E9487010E94A70246
:10095A00A5E9B3E00E94F006A4EAB3E00E94B5025A
:10096A00A0EDB7E058DE11C00E94F3010E94A70271
:10097A00A0EBB3E00E942C070E94F001EF930E94C3
:10098A00DE01AF91AE1708F0DDDE2CC01A3251F548
:10099A000E94A702A0ECB3E00E942F0719F1FE0102
:1009AA00FA93EA93A1E00E94B501309751F00E94B0
:1009BA00F7010E94A702A0EDB3E00E941C0709DF1D
:1009CA0011C00E94F3010E94A702A0EEB3E00E94A8
:1009DA002C070E94F001EF930E94DE01AF91AE173F
:1009EA0008F0B0DE90CFFFCFBA93AA93E991F991BC
:1009FA00A991B9916D917191671721F46623D1F785
:100A0A00EE270895671BE1F3E1E008F4E250089548
:100A1A00BA93AA93E991F991A991B991CD016191FA
:100A2A006D936623E1F7FC010895BA93AA93A991FD
:100A3A00B991EE27FF276D91662311F03196FBCF0E
:100A4A000895BA93AA93AA27BB27E991F991059029
:100A5A00002011F01196FBCFFD010895BA93AA93D5
:100A6A001A930A93AA81BB8112960E949D07309716
:100A7A0059F1AA81BB8114960E949D078F01309774
:100A8A0061F00230E0E01E0798F0F80131978F011B
:100A9A00AA81BB811496ED93FC93AA81BB8112961D
:100AAA00ED91FD913196FE93EE933197AC81A0833F
:100ABA00AA81BB810E949D07FF232AF0ED91FD9137
:100ACA003196FE93EE9306C0AA81BB81EFEFFFEF4A
:100ADA00ED93FC931981088125960895BA93AA93F8
:100AEA0026970E94C80710E0AC85BD85E0E0F0E0DB
:100AFA00ED93FC93EA89FB893196EA8BFB8B31975C
:100B0A00E4912E2FE03009F415C1E12FE03039F4D9
:100B1A00253211F411E002C00E943F070AC1E130F8
:100B2A00A9F4253219F40E943F0702C112E040E0FD
:100B3A0000E02D3211F401E0FCC02B3211F44BE23B
:100B4A00F8C0203211F440E2F4C002C0E23039F4B5
:100B5A0050E013E0203311F40068EBC003C0E33027
:100B6A0009F0E7C0203310F02A3308F007C0AAE0E2
:100B7A005A9F502DE22FE0535E0FDBC0E22FE3367F
:100B8A0049F40E944607E889F989A481AA930E9438
:100B9A004C07CEC0E33741F40E9446070E94520731
:100BAA000E941A051E2F0AC0E03761F40E94460708
:100BBA000E9452070E9426051E2F086002600F77C6
:100BCA0030E034C0E43611F0E93611F4046002C0B2
:100BDA00E53731F4E4E5F0E0EE83FF8315E00CC07D
:100BEA00E83511F4086003C0E83709F0A1C0EEE562
:100BFA00F0E0EE83FF8314E002FF14C00E94460770
:100C0A000E945C07AB85AA233AF4EA85FB850E9419
:100C1A007907EA87FB874DE2403011F01F5F01C078
:100C2A000B7F04C00E9446070E945C0700FD11C0AA
:100C3A00151778F407FF08C002FF04C00B7F242FA2
:100C4A00115001C020E301C020E20E943F07515029
:100C5A00EFCF312F01FF17C03030A1F003FF06C0DC
:100C6A00EE81FF812591EE83FF8305C0AE81BF81AE
:100C7A002D91AE83BF830E943F07503009F0515037
:100C8A003150EACF4BC020E3EE81FF810E94AB07CF
:100C9A00E887F987EE81FF813296EE83FF83E88544
:100CAA00F985AA85BB85AE17BF0750F02F5FA885C7
:100CBA00B985EA85FB85EA1BFB0BEA87FB87EFCF41
:100CCA002A3328F003FF02C0295F01C0295D04FD11
:100CDA001AC0213320F4A885B985119709F409C0EF
:100CEA00531710F000FF01C013C020E207FF0BC02A
:100CFA0020E3006102FF07C00B7F4A930E944C0762
:100D0A00503009F051500E943F07503009F05150BD
:100D1A003150A885B985129708F0B5CF00FF08C0F1
:100D2A00503031F05150E0E2EA930E944C07F8CF7C
:100D3A0010E0E0CEAC85BD850E949D070E94CF07DA
:100D4A0064960895FF92F82E26970E94CA070E9479
:100D5A006407309719F4EFEFFFEF23C0DE01169610
:100D6A000E946B078D010E946407EE83FF83E0E017
:100D7A00E887E987DE011A960E946B070E949D07A1
:100D8A00FA93EA931A930A93E3E3F5E0FA93EA9360
:100D9A00DE011A96A3DE9F01AE81BF81E0E0EC93EB
:100DAA00F9010E94D1072A96FF9008950E94F9043A
:100DBA00A0E00E949807F0E00895EA93A0E00C945E
:100DCA00460200E010E0A885B985E0E0EC93EA93DA
:100DDA00A1E00C94C4020E94B502E0E0EA93A1E00B
:100DEA000C94C402EA93A1E00C94C402ACEDB5E001
:100DFA000C9410030E94FF02EA8BFB8B6C8B7D8B99
:100E0A0008950E94B502FE013196FA93EA930E9470
:100E1A00E701F0E0FA93EA93A1E0B0E00E9441030F
:100E2A0030970895FE013196FA93EA9308950E9445
:100E3A00B502A8EEB3E00C941003E1E0F0E0FA93F7
:100E4A00EA93A0E0B0E00E944103309708950E941F
:100E5A00B502CCCF0E94B502FE01FA93EA930E9432
:100E6A00E701F0E0FA93EA93A1E0B0E00E944103BF
:100E7A00309708952A93AD85BE85EF85F88909953F
:100E8A000895E889F9893497E88BF98B0895AD8537
:100E9A00BE85EF85F88909950895A889B9891496B8
:100EAA000E949D07EE83FF83AE81BF810895A889C2
:100EBA00B98914960E949D07EA87FB870895DE0187
:100ECA001C960E946B070E949D0708950024AF0D8F
:100EDA00B01D0895EA1BFB0B680B790B0895AE1B36
:100EEA00BF0B860B970B0895F195E195F040089595
:100EFA00EE230E2EEA2F19F0EE0F0A94E9F7089561
:100F0A00EE230E2EFD0121F0EE0FFF1F0A94E1F7EA
:100F1A000895EE0FFF1FEE0FFF1F08956F2F660F44
:100F2A00660B762F0895EA17E1E009F0EE27089597
:100F3A00ED91FC9111970895ED91FD916D917D913F
:100F4A0008957E936E93FE93EE9308950590F4911F
:100F5A00E02D0895E881F9816A817B810895A8814D
:100F6A00B9818A819B810895E883F9836A837B83A7
:100F7A0008957A936A93FA93EA930895AE17BF078E
:100F8A008607970708955A934A933A932A931A938E
:100F9A000A9308955D814C813B812A8119810881D8
:100FAA000895AC0FBD1F05900D928A95E1F708953B
:00000001FF
