:080000000C944C010C9400006B
:100008000C9400000C9400000C9400000C94000068
:100018000C9400000C9400000C9400000C94000058
:100028000C943B020C9400000C9400000C9400000B
:100038000C9400000C9400000C9400000C94000038
:100048000C9400000C9400000C9400001027E803A6
:1000580064000A00010000100001100001003132A4
:1000680033343939393903000400313233413435F6
:100078003642373839432A30234420202020202094
:1000880020202020202020202020004C656E204D9C
:10009800757374204265200053595354454D204CC4
:1000A8004F434B4544210057616974202532642031
:1000B80073656320202000313A557372507377209E
:1000C800323A41646D507300333A54726965732053
:1000D80020343A4C656E004E657720557365722062
:1000E800506173733A00536176656421004E6577F9
:1000F8002041646D696E20506173733A00536574D2
:10010800204D61782054726965733A0053657420F4
:100118004C656E67746828342D38293A0053617627
:1001280065642120506C7A20526573657400496EAD
:1001380076616C6964204C656E67746821002020C4
:100148004469676974616C204C6F636B20200020E0
:100158005374617274696E672E2E2E202020200041
:10016800413A20557365722020423A41646D696EA8
:100178000053656C656374204D6F64652E2E2E00E8
:10018800557365722050617373776F72643A0041DA
:100198006363657373204772616E74656400446FAE
:1001A8006F72204F70656E65640057726F6E6720BE
:1001B80050617373776F7264210041646D696E20BA
:1001C80050617373776F72643A0041646D696E2091
:1001D800566572696669656421000400DF0366007C
:1001E8000400E9036A000100F3036E000100F40350
:1001F80070001100600282000D007102930011006E
:100208007E0282000F008F02A00011009E02BF0034
:100218000F00AF02D0000F00BE02DF000700CD02C2
:10022800EE001000D402F5000700E402EE000F0013
:10023800EB0205010700FA02EE00110001031401A8
:1002480011001203250110002303360111003303A6
:1002580046011100440357011100550368010F00BE
:10026800660379010F00750388010F008403970165
:100278000C009303A60110009F03B2011000AF0306
:10028800C2011000BF03D2011000CF03B201000069
:10029800F894EE27ECBBF1E0FBBFEBBFE5BF8DE0C8
:1002A800A2E0BB27ED938A95E9F780E098E0A0E605
:1002B800ED930197E9F7E2EEF1E0859195910097CA
:1002C80061F0A591B59105901590BF01F0010590D9
:1002D8000D920197E1F7FB01F0CFEFE5EDBFE8E004
:1002E800EEBFC0E6D2E00C94BB03A0E0B899A1E051
:1002F800E1E0EA2B11F4B89801C0B89AC0980895C3
:10030800C09AE1E0E093FA030E946102E093F603E9
:10031800F093F7036093F8037093F9030895E0915D
:10032800FA03E030D1F00E946102DF01CB01E091D5
:10033800F603F091F7036091F8037091F9030E94B6
:100348004B07A93BEBE0BE07E0E08E07E0E09E0725
:1003580020F0C098E0E0E093FA030895AA93E881BA
:10036800E03051F4E981FA81FA93EA93AFEDB3E012
:100378000E94B2060C94CE04E981FA81FA93EA93BA
:10038800A9EEB3E00E94B2060C94CE04AA93E881C9
:10039800E03019F4EFEDF3E002C0E9EEF3E0FA9390
:1003A800EA93AB81BC810E94E4040C94CE04E091F2
:1003B800F3030895AA93E881E093F3030C94AA0445
:1003C800E091F4030895AA93E881E093F4030C9470
:1003D800AA04E091F5030895E091F503EF5F01C0E9
:1003E800E0E0E093F5030895EFE0EABBEFEFEBBB45
:1003F8000895609780E1A0E0B0E0E2E7F0E00E94B5
:10040800AD071A930A9310E0143060F5E12FA1E0CC
:100418000E945407E095E06FEBBBA2E0B0E05ED02D
:1004280000E00430E8F419B2E02FF0E03496A1E0DF
:10043800B0E00E945C07A12DB0E0EA23FB233097CF
:1004480069F4E12FF0E0DE0112960E946507AE0F15
:10045800BF1FEE27A00FBE1FEC9105C00F5FE1CFB5
:100468001F5FD2CFE0E019810881629608956A93F0
:100478007A93AA93BA93EA93FA93EFB7EA93ABEF16
:10048800B3E00E947807EF5FFF4F6F4F7F4F0E94E6
:100498007D07E991EFBFF991E991B991A991799116
:1004A80069911895E0E0E2BFECE7ECBFEBE0E3BF51
:1004B800E9B7E260E9BF789408952497F894E09149
:1004C800FB03F091FC036091FD037091FE030E9411
:1004D800900778940E94860724960895BA93AA9361
:1004E8002497EBDF0E949007E8DF0E948B070E94A9
:1004F8004607DF01CB01EC81FD81662777270E9443
:100508009A0790F3269608951A930E9493010E94E1
:10051800FD011E2F103081F0A4E1B0E0DFDF0E9462
:10052800FD011E1749F40E94FD01E03019F00E94F8
:100538009301F9CFE12F01C0E8CF19910895BA933B
:10054800AA930E94A1070E94B906A0E6B2E00E9401
:10055800C306DADF3E2F3332B1F4EE81FF81E017B4
:10056800F10719F4E1E0F0E040C0E0E00E94CA06BB
:10057800A1E7B2E0EDD1AE81A05DE3D10E94CE0645
:10058800E0E0F0E032C03A3239F40E94B906AEE752
:10059800B2E00E94C30628C0333419F4E0E0F0E06A
:1005A80024C0303310F03A3308F01EC0EE81FF81CA
:1005B8000E171F07CCF4F801A885B985EA0FFB1FB1
:1005C80030830F5F1F4FF801AE0FBF1FE0E0EC93C1
:1005D800E02FE1500E94CA06EC81FD81309711F0AE
:1005E800AAE201C0A32FADD1B4CF0E94A8072A96D2
:1005F800089564971A930A930FE010E00E94D206B8
:1006080098D1AFE8B2E0A4D10024001601067CF529
:100618000E94930152DFDF01CB01EA89FB896C89D3
:100628007D890E944B07A83EE3E0BE07E0E08E0705
:10063800E0E09E07D8F00E94D20601501040FE016B
:100648003296FA93EA93EFEAF0E0FA93EA93F80124
:100658000E946A070E94950784E00E947E062896F9
:10066800E0E00E94CA06DE01129672D1CDCF0E9448
:10067800F40119810881669608952A971A9359D129
:10068800AEE9B2E00E94C306AFEAB2E061D13CDF56
:100698001E2F113389F44DD1AEEBB2E00E94D9067A
:1006A80051F00E94EA06A0E00E94CA0142D1ADECD6
:1006B800B2E00E94EF0657C0123389F43AD1A4ED94
:1006C800B2E00E94D90651F00E94EA06A1E00E9419
:1006D800CA012FD1A4EEB2E00E94EF0644C0133342
:1006E80099F427D1ABEEB2E033D10E94EA060E941A
:1006F800F50649F0A981A0530E94DE011AD1AAEF9C
:10070800B2E00E94EF062FC0143341F512D1A1E0E8
:10071800B3E01ED10E94EA060E94F506F1F0229786
:10072800EB81F0E0F097E883F983A881B981149709
:1007380024F0A881B98119970CF007C0A8810E94FC
:10074800E701F7D0A2E1B3E003C0F3D0A3E2B3E03E
:10075800FFD0A8EEB3E0C2DE229605C0133411F034
:10076800143409F401C08BCF18812B9608952A9769
:1007780099DEC8D00E94F8010E947901DAD0A3E37B
:10078800B3E00E94C306A4E4B3E00E94FF060E94FF
:100798009301CFD0A5E5B3E00E94C306A6E6B3E077
:1007A800D7D0B2DE1E2F113479F5C3D0A5E7B3E058
:1007B8000E94020741F1FE01FA93EA93A0E00E9429
:1007C800B201309781F00E94F4010E948401B1D0F7
:1007D800A4E8B3E00E94C306A3E9B3E0B9D0A0ED52
:1007E800B7E07CDE10C00E94F001A3D0AFE9B3E00F
:1007F8000E94FF060E94ED01EF930E94DB01AF917A
:10080800AE1708F0F6DE29C0123439F592D0AFEAF7
:10081800B3E00E94020709F1FE01FA93EA93A1E00E
:100828000E94B201309749F00E94F40182D0AFEBE8
:10083800B3E00E94EF0621DF10C00E94F00179D0DA
:10084800AFECB3E00E94FF060E94ED01EF930E9417
:10085800DB01AF91AE1708F0CCDE99CFFFCFA99A94
:10086800A1E0B0E00E947202A998A1E066C0AA9334
:10087800E881E03011F4A89801C0A89AE981E295CE
:10088800E17011F4AA9801C0AA9AE981E295EF7083
:10089800E695E17011F4AB9801C0AB9AE981E29555
:1008A800EF70E695E695E17011F4AC9801C0AC9A4A
:1008B800E981EE1FE0E0EE1FE17011F4AD9801C090
:1008C800AD9ACDDFE981E17011F4AA9801C0AA9A26
:1008D800E981E695E17011F4AB9801C0AB9AE98122
:1008E800E695E695E17011F4AC9801C0AC9AE981FF
:1008F800E695E695E695E17011F4AD9801C0AD9ADC
:10090800AEDF33C0E4B3EF63E4BBA898A998A4E1D1
:10091800B0E00E947202E2E00E941207E8E20E9440
:100928001207ECE00E941207E6E00E94120701D0CD
:100938000895E1E00E941207A2E0B0E00E9472026E
:100948000895AA93E881EA93A1E091DF219608959A
:10095800BA93AA93A881B981EC91E03031F0ED9176
:10096800A883B983AE2FEDDFF5CF22960895AA9319
:100978001A93A981A03029F4EA81F0E0E058FF4FEA
:1009880004C0EA81F0E0E054FF4F1E2F1A93A0E064
:100998006EDF188123960895BA93AA93E991F99185
:1009A800A991B9916D917191671721F46623D1F7D7
:1009B800EE270895671BE1F3E1E008F4E25008959B
:1009C800BA93AA93E991F991A991B991CD0161914D
:1009D8006D936623E1F7FC010895BA93AA93A99150
:1009E800B991EE27FF276D91662311F03196FBCF61
:1009F8000895BA93AA93AA27BB27E991F99105907C
:100A0800002011F01196FBCFFD010895BA93AA9327
:100A18001A930A93AA81BB8112960E947407309791
:100A280059F1AA81BB8114960E9474078F013097EF
:100A380061F00230E0E01E0798F0F80131978F016D
:100A4800AA81BB811496ED93FC93AA81BB8112966F
:100A5800ED91FD913196FE93EE933197AC81A08391
:100A6800AA81BB810E947407FF232AF0ED91FD91B2
:100A78003196FE93EE9306C0AA81BB81EFEFFFEF9C
:100A8800ED93FC931981088125960895BA93AA934A
:100A980026970E949F0710E0AC85BD85E0E0F0E056
:100AA800ED93FC93EA89FB893196EA8BFB8B3197AE
:100AB800E4912E2FE03009F415C1E12FE03039F42C
:100AC800253211F411E002C00E9416070AC1E13074
:100AD800A9F4253219F40E94160702C112E040E079
:100AE80000E02D3211F401E0FCC02B3211F44BE28E
:100AF800F8C0203211F440E2F4C002C0E23039F408
:100B080050E013E0203311F40068EBC003C0E33079
:100B180009F0E7C0203310F02A3308F007C0AAE034
:100B28005A9F502DE22FE0535E0FDBC0E22FE336D1
:100B380049F40E941D07E889F989A481AA930E94B3
:100B48002307CEC0E33741F40E941D070E942907FE
:100B58000E94F1041E2F0AC0E03761F40E941D07AD
:100B68000E9429070E94FD041E2F086002600F776B
:100B780030E034C0E43611F0E93611F4046002C004
:100B8800E53731F4E4E5F0E0EE83FF8315E00CC0CF
:100B9800E83511F4086003C0E83709F0A1C0EEE5B4
:100BA800F0E0EE83FF8314E002FF14C00E941D07EB
:100BB8000E943307AB85AA233AF4EA85FB850E9495
:100BC8005007EA87FB874DE2403011F01F5F01C0F4
:100BD8000B7F04C00E941D070E94330700FD11C04F
:100BE800151778F407FF08C002FF04C00B7F242FF5
:100BF800115001C020E301C020E20E9416075150A5
:100C0800EFCF312F01FF17C03030A1F003FF06C02E
:100C1800EE81FF812591EE83FF8305C0AE81BF8100
:100C28002D91AE83BF830E941607503009F05150B2
:100C38003150EACF4BC020E3EE81FF810E9482074A
:100C4800E887F987EE81FF813296EE83FF83E88596
:100C5800F985AA85BB85AE17BF0750F02F5FA88519
:100C6800B985EA85FB85EA1BFB0BEA87FB87EFCF93
:100C78002A3328F003FF02C0295F01C0295D04FD63
:100C88001AC0213320F4A885B985119709F409C041
:100C9800531710F000FF01C013C020E207FF0BC07C
:100CA80020E3006102FF07C00B7F4A930E942307DD
:100CB800503009F051500E941607503009F0515039
:100CC8003150A885B985129708F0B5CF00FF08C044
:100CD800503031F05150E0E2EA930E942307F8CFF8
:100CE80010E0E0CEAC85BD850E9474070E94A6077F
:100CF80064960895FF92F82E26970E94A1070E94F5
:100D08003B07309719F4EFEFFFEF23C0DE0116968B
:100D18000E9442078D010E943B07EE83FF83E0E0BB
:100D2800E887E987DE011A960E9442070E94740745
:100D3800FA93EA931A930A93EAE0F5E0FA93EA93AE
:100D4800DE011A96A3DE9F01AE81BF81E0E0EC933D
:100D5800F9010E94A8072A96FF9008950E94D004DE
:100D6800A0E00E946F07F0E0089500E010E0A88579
:100D7800B985E0E0EC93EA93A1E00C94BB040E94EF
:100D8800AC04E0E0EA93A1E00C94BB04EA93A1E090
:100D98000C94BB04ACEDB5E00C9472020E946102A5
:100DA800EA8BFB8B6C8B7D8B08950E94AC04FE0153
:100DB8003196FA93EA930E94E401F0E0FA93EA93F9
:100DC800A1E0B0E00E94A30230970895FE01319699
:100DD800FA93EA9308950E94AC04A8EEB3E00C9449
:100DE8007202E1E0F0E0FA93EA93A0E0B0E00E943A
:100DF800A302309708950E94AC04CCCF0E94AC04A3
:100E0800FE01FA93EA930E94E401F0E0FA93EA9370
:100E1800A1E0B0E00E94A30230970895EA93A0E011
:100E28000C943B042A93AD85BE85EF85F889099516
:100E38000895E889F9893497E88BF98B0895AD8589
:100E4800BE85EF85F88909950895A889B98914960A
:100E58000E947407EE83FF83AE81BF810895A8893D
:100E6800B98914960E947407EA87FB870895DE0102
:100E78001C960E9442070E94740708950024AF0D33
:100E8800B01D0895EA1BFB0B680B790B0895AE1B88
:100E9800BF0B860B970B0895F195E195F0400895E7
:100EA800EE230E2EEA2F19F0EE0F0A94E9F70895B3
:100EB800EE230E2EFD0121F0EE0FFF1F0A94E1F73D
:100EC8000895EE0FFF1FEE0FFF1F08956F2F660F97
:100ED800660B762F0895EA17E1E009F0EE270895EA
:100EE800ED91FC9111970895ED91FD916D917D9192
:100EF80008957E936E93FE93EE9308950590F49172
:100F0800E02D0895E881F9816A817B810895A8819F
:100F1800B9818A819B810895E883F9836A837B83F9
:100F280008957A936A93FA93EA930895AE17BF07E0
:100F38008607970708955A934A933A932A931A93E0
:100F48000A9308955D814C813B812A81198108812A
:100F58000895AC0FBD1F05900D928A95E1F708958D
:00000001FF
